:020000040800F2
:10000000680800209D010008A5010008A70100085C
:10001000A9010008AB010008AD01000800000000C4
:10002000000000000000000000000000AF01000818
:10003000B101000800000000B3010008B50100088C
:10004000B7010008B7010008B7010008B7010008B0
:10005000B7010008B7010008B7010008B7010008A0
:10006000B7010008B7010008750C0008B7010008C7
:10007000B7010008B7010008B7010008B701000880
:10008000B7010008B7010008B7010008B701000870
:10009000B7010008B7010008B7010008CD0C00083F
:1000A000B7010008B7010008B7010008B701000850
:1000B000B7010008B7010008491C0008B701000893
:1000C000B7010008B7010008B7010008B701000830
:1000D000B70100081122000821240008B701000818
:1000E0005B0C0008B7010008B7010008B701000861
:1000F000B7010008B7010008B7010008B701000800
:10010000B7010008B7010008B7010008B7010008EF
:10011000B7010008B7010008B7010008B7010008DF
:10012000B7010008B7010008B7010008B7010008CF
:10013000B7010008B7010008B7010008B7010008BF
:10014000B7010008B7010008B7010008B7010008AF
:10015000B7010008B7010008B7010008B70100089F
:10016000B7010008B7010008B7010008B70100088F
:10017000B7010008B7010008B7010008B70100087F
:10018000B7010008B7010008DFF80CD000F004FB4D
:1001900000480047393800086808002006488047B2
:1001A00006480047FEE7FEE7FEE7FEE7FEE7FEE75C
:1001B000FEE7FEE7FEE7FEE7E11B00088901000815
:1001C000421C10F8011B0029FBD1801A7047000067
:1001D00070B50F4D00B92868002412E00A4602E00D
:1001E0009E4203D0521C1378002BF9D1DAB222437D
:1001F00005D02BB124B1002100F8011B04E0044616
:10020000401C0678002EE9D12860204670BD000011
:10021000240200202DE9FE4F81EA030404F000448B
:1002200021F0004100944FF0000B23F0004350EA0E
:1002300001045ED052EA03045BD0C3F30A54C1F355
:100240000A552C44A4F2F3340194A0FB0254C1F3E8
:10025000130141F48011C3F3130343F4801301FB32
:10026000024400FB034E840A970A44EA815447EA99
:100270008357A4FB076802958D0A05FB07854FEAA3
:10028000932C04FB0C542705029D4FEA065847EABD
:100290001637B5EB08056EEB070C870E920E47EA92
:1002A000811742EA8312A7FB0201B6EB0B0164EB54
:1002B00000042B0D43EA0C335E1844EB1C50DA4665
:1002C0005146E7FB0201C5F313044FEA0B3343EA3F
:1002D00014534FEA0432019C43EA0603A4F10C04D0
:1002E0000294009CCDE900B400F0C2F803B0BDE870
:1002F000F08F00200146F9E700F0004230F00040A6
:100300000AD0C10D01F56071C0F3160042EA015137
:10031000C20840071143704700200146704701F0B2
:10032000004330B421F0004150EA010206D00A0D2A
:10033000A2F56072C1F31301002A02DC30BC002078
:100340007047440F44EAC104C100E01830BC00EB20
:10035000C25000F047B830B50B46014600202022BD
:10036000012409E021FA02F59D4205D303FA02F5C2
:10037000491B04FA02F52844151EA2F10102F1DC22
:1003800030BD2DE9F05F0546002092469B46884629
:100390000646814640241BE0284641464746224601
:1003A00000F01BFA53465A46C01A914110D3114629
:1003B0001846224600F002FA2D1A67EB01084F4654
:1003C00022460120002100F0F9F917EB00094E4107
:1003D000201EA4F10104DFDC484631462A4643468C
:1003E000BDE8F09F0029A8BF7047401C490008BF26
:1003F00020F00100704710B4B0FA80FC00FA0CF055
:1004000050EA010404BF10BC704749B1CCF120048C
:1004100021FA04F411FA0CF118BF01212143084319
:10042000A3EB0C01CB1D4FEA00614FEA102042BF45
:10043000002010BC704700EBC35010440029A4BF3B
:1004400010BC7047401C490008BF20F0010010BCE0
:10045000704710B5141E73F1000408DA401C41F116
:10046000000192185B411A4301D120F0010010BD38
:100470002DE9F04D92469B4611B1B1FA81F202E0AE
:10048000B0FA80F22032904600F098F904460F4608
:1004900040EA0A0041EA0B0153465A46084313D08A
:1004A000114653EA010019D0C8F14002504600F04D
:1004B00094F905460E4650465946424600F07EF9EC
:1004C000084305D0012004E020463946BDE8F08D00
:1004D0000020054346EAE0762C4337430A9863053B
:1004E000E40AA0EB08000022FD0A44EA47540A305F
:1004F00002D500200146E9E7010510196941DDE94F
:10050000084500196941BDE8F04DA2E72DE9FE4F0D
:10051000804681EA0300C00F0C46009021F00041A4
:1005200023F00045B8EB0200A94105D24046214620
:1005300090461C460B46024623F00040104347D02D
:10054000270DC7F30A00C3F30A510290401A019025
:1005500040286BDAC3F3130040F4801B00989246E6
:1005600020B10023D2EB030A63EB0B0B0198594631
:10057000C0F14002504600F021F906460D465046B3
:100580005946019A00F039F910EB08006141002446
:1005900087EA115284EAE7731A4340D0009A62B3A3
:1005A000019A012A4FEA075215DC001B61EB020198
:1005B0004FF0004202EA0752CDE90042001C41F52B
:1005C000801132462B46FFF753FF03B0BDE8F08F92
:1005D00040462146F9E7001B61EB0201001C41F592
:1005E000801300185B412018A2F5001747EB0301A8
:1005F00040EAD570B6196D4111E06D084FEA360634
:1006000045EAC0754FEA0752001B61EB0201001C6E
:1006100041F5801149084FEA300000195141324636
:100620002B4603B0BDE8F04FFFF713BF009801223F
:1006300040000023D0EB020263EBE07300982146F8
:100640004FEAE074B8EB000061EB0401E9E783F0E6
:1006500000435BE781F0004158E72DE9F04D81EA66
:10066000030404F0004B21F0004514464FF0000A4B
:1006700023F0004150EA050220D054EA01021DD0C7
:10068000C5F30A570246C5F31303C1F31300C1F3C0
:100690000A5640F4801543F48013A7EB0608101B9C
:1006A000D64608F2FD3873EB050002D308F10108C5
:1006B00001E092185B41B8F1000F03DA0020014617
:1006C000BDE8F08D00204FF48011064684460EE010
:1006D000171B73EB050705D3121B63EB05030643DA
:1006E0004CEA010C49084FEA300092185B4150EA8D
:1006F0000107EDD152EA030012D082EA040083EA36
:100700000501084305D0101BAB4106D2012200238E
:1007100006E000224FF0004302E06FF001025310A8
:100720001AEB06004CEB085110EB0A0041EB0B01F1
:10073000BDE8F04DFFF78DBEC1F30A52C1F31301BE
:1007400040F2FF3341F480119A4202DA0020014660
:10075000704740F233439A42A2F2334202DC5242E3
:1007600000F03BB800F02AB830B5041E71F1000467
:1007700004DB4FF00044404264EB0101141E73F1AE
:10078000000405DB1C464FF00043524263EB0403B8
:10079000994208BF904230BD064C074D06E0E06824
:1007A00040F0010394E8070098471034AC42F6D3B8
:1007B000FFF7EEFC2C4000084C400008202A04DB28
:1007C000203A00FA02F1002070479140C2F1200364
:1007D00020FA03F3194390407047202A04DB203AA3
:1007E00021FA02F00021704721FA02F3D040C2F151
:1007F00020029140084319467047202A06DBCB1798
:10080000203A41FA02F043EAE07306E041FA02F3CB
:10081000D040C2F12002914008431946704770B59C
:100820008D1810F8014B14F0030201D110F8012BC0
:10083000231106D110F8013B03E010F8016B01F819
:10084000016B521EF9D1ABB110F8012B04F00C046E
:100850008A1A0C2C03D0A2EB84129B1C08E010F81F
:10086000014BA2EB0422F8E712F8014B01F8014B0F
:100870005B1EF9D5A942D4D3002070BD21B1826896
:1008800042F00102826003E0826822F0010282608D
:10089000704700000021084A1168084A1140D0E959
:1008A00000231A4383681A43C3681A431143044A56
:1008B000C2F804137047000004230140E030FCFF3D
:1008C0000020014000B58DB00121080200F0B2FF08
:1008D0000121042000F08EFF03208DF8300001205C
:1008E0000B9000208DF833000BA9114800F088FA16
:1008F0000020099007904FF48030089000200A9063
:1009000007A8FFF7C7FF002001908DF808008DF8B9
:100910000900059003900120049001A9054800F00A
:1009200053F801210348FFF7A9FF0DB000BD0000F7
:10093000000802400020014000B58DB001210802EE
:1009400000F078FF0121084600F054FF03208DF8E5
:10095000300001200B9000208DF833000BA91148C6
:1009600000F04EFA0020099007904FF48030089074
:1009700000200A9007A8FFF78DFF002001908DF856
:1009800008008DF80900059003900120049001A94A
:10099000054800F019F801210348FFF76FFF0DB07B
:1009A00000BD000000000240002001400146C86C6C
:1009B00080B270470246002013680B400BB1012043
:1009C00000E000207047000030B502460020002300
:1009D0005068104C20400D790C6844EA05242043EF
:1009E000506090680C4C2040D1E903542C438D6832
:1009F0002C434D7944EA450420439060D06A20F4AA
:100A000070000C7D641EE4B2234340EA0350D062C0
:100A100030BD0000FFFEFFFCFDF7FFC0F0B504464F
:100A20000D4600200021092D11DDE068A5F10A0620
:100A300006EB4607072606FA07F18843A5F10A06E2
:100A400006EB460603FA06F10843E0600CE0206975
:100A500005EB4507072606FA07F1884305EB45062F
:100A600003FA06F108432061072A0FDA606B561E6D
:100A700006EB86071F2606FA07F18843561E06EB8B
:100A8000860605FA06F10843606322E00D2A0FDAB4
:100A9000206BD61F06EB86071F2606FA07F1884350
:100AA000D61F06EB860605FA06F10843206310E020
:100AB000E06AA2F10D0606EB86071F2606FA07F18B
:100AC0008843A2F10D0606EB860605FA06F10843F7
:100AD000E062F0BD816841F080418160704710B5EF
:100AE00000F03CFA00F04AFBA02000F013FB00F0FD
:100AF000A5FA18B100F04AFA012010BD0020FCE769
:100B000070B50446002500F039FBA02000F002FB80
:100B100000F094FA18B100F039FA012070BD2046B7
:100B200000F0F8FA00F08AFA18B100F02FFA01206C
:100B3000F4E700F023FBA12000F0ECFA00F07EFACD
:100B400018B100F023FA0120E8E700F03DFA05466D
:100B5000012000F0B9FA00F019FA2846DEE770B576
:100B600005460C4600F00AFBA02000F0D3FA00F086
:100B700065FA18B100F00AFA012070BD284600F0AD
:100B8000C9FA00F05BFA18B100F000FA0120F4E7AE
:100B9000204600F0BFFA00F051FA18B100F0F6F963
:100BA0000120EAE700F0F2F90020E6E710B50122A3
:100BB0009102094800F09CF94FF4FA7002F0ECFC45
:100BC00000224FF48061044800F092F94FF4FA706B
:100BD00002F0E2FC10BD0000000402401CB501213F
:100BE000022000F007FE4FF48060009001208DF895
:100BF000040000208DF8060002208DF805008DF815
:100C000007006946044800F0FBF84FF48061024891
:100C100000F06AF91CBD00000004024010B500227B
:100C20004FF48061014800F063F910BD00040240F8
:100C300010B501229102024800F05AF910BD0000DF
:100C40000004024010B5044621464FF0804001F0F8
:100C500032F9012002F0A0FC10BD10B541F2707015
:100C600000F0C2F8FFF7DAFF4FF4005000F06CF824
:100C700010BD000010B510210F4800F02CF9C8B9C4
:100C80000A2002F061FC10210B4800F024F988B919
:100C900000BF1021084800F01EF90028F9D00020FC
:100CA00000F09EFC05A204210A2000F04BFD10205C
:100CB00000F04AF810BD0000001002405379737430
:100CC000656D205475726E4F6E00000010B52021C6
:100CD000154800F000F9C0B9002000F081FC13A213
:100CE00004210A2000F02EFD002014490860144958
:100CF0000860144908604FF4FA6002F04DFC0020CF
:100D000000F06EFC202000F01FF84021064800F0A3
:100D1000E2F840B942F2107000F066F8FFF788FF81
:100D2000402000F011F810BD001002405379737498
:100D3000656D205475726E4F6666000028000020B5
:100D4000140000202C0000200149086070470000BA
:100D5000143C0140002123498279002A3AD00A46F6
:100D6000126803689A430B461A600A1D12680368EA
:100D70009A430B1D1A60027911440A6803681A43EA
:100D80000A60184A0832126803689A43154B083300
:100D90001A601A1D126803689A43124B0C331A60CA
:100DA0004279102A0ED11A1F126803681A430D4B9C
:100DB00008331A601A1D126803681A43094B0C3372
:100DC0001A600DE00749427911440A6803681A4322
:100DD0000A6005E0027911440A6803689A430A60D0
:100DE00070470000003C014010B50446214603480E
:100DF00001F05FF8012002F0CFFB10BD00180040A9
:100E0000F0B50A4600210023002400BF3DE0012583
:100E100005FA01F3156805EA03049C4234D105681C
:100E20004F000326BE40B543056015794E00B5401E
:100E30000668354305601579012D02D01579022D1C
:100E400016D185684F000326BE40B54385605579AD
:100E50004E00B540866835438560456801268E4062
:100E6000B5434560456896798E40B6B235434560D6
:100E7000C5684F000326BE40B543C560D5794E0016
:100E8000B540C6683543C560491C1029BFD3F0BDC5
:100E9000F0B5002300244D07ED0E02FA05F3CE1045
:100EA00000F1200555F826504E07F70E0F26BE40DC
:100EB000B543CF1000F1200646F82750CE1000F1C0
:100EC000200555F8265045EA0304CE1000F1200510
:100ED00045F82640F0BD0246002013690B400BB1D7
:100EE000012000E000207047418370470183704774
:100EF0000AB1018300E041837047000010B5044649
:100F0000E1B2072301220848FFF788FD0648FFF7F2
:100F1000E1FD00BF02210448FFF74CFD0028F9D095
:100F20000148FFF743FD10BD0020014010B5044605
:100F3000E1B2072301220848FFF770FD0648FFF7DA
:100F4000C9FD00BF02210448FFF734FD0028F9D095
:100F50000148FFF72BFD10BD002001401CB5012109
:100F6000022000F047FCC020009001208DF8040012
:100F70008DF8060000208DF807008DF80500694601
:100F80000148FFF73DFF1CBD0004024010B54021A1
:100F90000C48FFF7A9FF80210A48FFF7A5FF0220B0
:100FA00002F016FB40210748FFF7A0FF022002F0E5
:100FB0000FFB80210348FFF799FF022002F008FB96
:100FC00010BD00000004024070B500F063F800247A
:100FD000002500BF29E06006040E40211648FFF7F7
:100FE00083FF012002F0F4FA80211348FFF77EFF0F
:100FF000012002F0EDFA40210F48FFF777FF0120B2
:1010000002F0E6FA80210C48FFF765FF10B144F0CA
:10101000010401E004F0FE0440210748FFF764FFEB
:10102000042002F0D5FA681CC5B2082DD3DB00F00D
:101030003DF8204670BD00000004024010B500F0ED
:1010400029F840211248FFF74FFF012002F0C0FAB3
:1010500080210F48FFF74AFF012002F0B9FA402132
:101060000B48FFF743FF012002F0B2FA8021084845
:10107000FFF731FF08B1012010BD40210448FFF700
:1010800033FF012002F0A4FA00F010F80020F3E78B
:10109000000402401CB500208DF804006946024897
:1010A000FFF7AEFE1CBD0000000402401CB501208D
:1010B0008DF804008DF8060069460248FFF7A0FE8F
:1010C0001CBD00000004024010B504464021104839
:1010D000FFF70AFF012002F07BFA012C04D18021E6
:1010E0000B48FFF703FF03E080210948FFF7FCFEF0
:1010F00040210748FFF7FAFE042002F069FA402178
:101100000348FFF7F1FE012002F062FA10BD000073
:101110000004024070B50546002400BF22E04021D3
:101120001548FFF7E1FE012002F052FAC4F1070072
:1011300045FA00F000F0010020B180210E48FFF7D1
:10114000D5FE03E080210C48FFF7CEFE022002F01E
:101150003FFA40210848FFF7C9FE042002F038FAA0
:10116000601CC4B2082CDADB40210348FFF7BCFE48
:10117000022002F02DFA70BD0004024010B540219B
:101180000A48FFF7B3FE80210848FFF7AFFE0220B0
:1011900002F01EFA80210548FFF7A6FE022002F0A9
:1011A00017FA80210148FFF79FFE10BD000402409E
:1011B00000B585B00121880300F03CFB00208DF8CC
:1011C00010001020039001208DF8130000208DF8EE
:1011D000110003A91248FFF713FE0421084600F08E
:1011E00055FC1020019001208DF80A0000208DF898
:1011F00008000C208DF8090001A8FFF7ABFD0A20BC
:101200008DF8000001208DF8030000208DF801000A
:101210008DF80200684600F09DF905B000BD0000A1
:101220000010024000B585B00121880300F002FBE8
:1012300000208DF810002020039001208DF813006D
:1012400000208DF8110003A91248FFF7D9FD0521F0
:10125000042000F01BFC2020019001208DF80A00E2
:1012600000208DF808000C208DF8090001A8FFF778
:1012700071FD17208DF8000001208DF8030000207B
:101280008DF801008DF80200684600F063F905B0A2
:1012900000BD00000010024000B585B001218803A8
:1012A00000F0C8FA00208DF81000402003900120C3
:1012B0008DF8130000208DF8110003A91248FFF7E4
:1012C0009FFD0621042000F0E1FB40200190012059
:1012D0008DF80A0000208DF808000C208DF8090018
:1012E00001A8FFF737FD17208DF8000001208DF8C9
:1012F000030000208DF801008DF80200684600F020
:1013000029F905B000BD00000010024000B585B00D
:101310000121880300F08EFA00208DF810004FF4B0
:101320000050039001208DF8130000208DF811006B
:1013300003A91348FFF764FD0D21022000F0A6FB6E
:101340004FF40050019001208DF80A0000208DF824
:1013500008000C208DF8090001A8FFF7FBFC2820ED
:101360008DF8000001208DF8030000208DF80100A9
:101370008DF80200684600F0EDF805B000BD0000F1
:101380000008024010B5AE2001F02CFC002001F056
:1013900029FC102001F026FC402001F023FC8120D4
:1013A00001F020FCCF2001F01DFCA12001F01AFC6F
:1013B000C82001F017FCA62001F014FCA82001F0C1
:1013C00011FC3F2001F00EFCD32001F00BFC0020AB
:1013D00001F008FCD52001F005FC802001F002FCA2
:1013E000D92001F0FFFBF12001F0FCFBDA2001F035
:1013F000F9FB122001F0F6FBDB2001F0F3FB4020AB
:1014000001F0F0FB022001F0EDFB8D2001F0EAFB82
:10141000142001F0E7FBA42001F0E4FBA62001F07A
:10142000E1FBAF2001F0DEFBAF2001F0DBFB002091
:1014300000F0D6F810BD00001CB50121102000F00E
:10144000D9F900208DF804008DF806007020009076
:1014500001208DF8070003208DF805006946024839
:10146000FFF7CEFC1CBD0000001002401CB501219E
:10147000042000F0BFF900208DF804008DF806006C
:101480004FF40050009001208DF8070003208DF8E4
:10149000050069460148FFF7B3FC1CBD0008024087
:1014A0001CB50121102000F0A5F94FF4E060009078
:1014B00001208DF8040000208DF8060002208DF830
:1014C000050001208DF8070069460948FFF798FCE0
:1014D0004FF480710648FFF709FD4FF4007104488E
:1014E000FFF704FD4FF480610148FFF7FFFC1CBDCE
:1014F0000010024010B50E480068B8B10024632403
:1015000006E0204600F016F80A2002F045F8641EB6
:10151000002CF6DC002406E0204600F00BF80A2040
:1015200002F03AF8641C692CF6DD00BF10BD000023
:101530002800002010B504462146054800F0B7FCFD
:101540002146034800F0B5FC012002F025F810BD4B
:101550000000014070B5002100230F22C4781CB3A5
:10156000174C246804F4E064C4F5E064C4F3072174
:10157000C1F10404E3B20A4144789C40E1B28478AA
:10158000144021430C07210E0E4C05786155047858
:1015900004F01F050124AC4005786D11AD0005F184
:1015A000E025C5F8004109E0047804F01F05012496
:1015B000AC40054D0678761145F8264070BD000018
:1015C0000CED00E000E400E080E100E002490143AE
:1015D000024A1160704700000000FA050CED00E0BF
:1015E00070B50646002415E004F1B001C8B201F060
:1015F000F9FA002001F0F6FA102001F0F3FA0025C4
:1016000004E0304601F005FB681CC5B2802DF8DB14
:10161000601CC4B2082CE7DB70BD70B504460D46F3
:1016200005F1B001C8B201F0DDFA102141EA141051
:1016300001F0D8FA04F00F0001F0D4FA70BD2DE9E2
:10164000F04107460E461546002431463846FFF75E
:10165000E4FF00BF04E0285D01F0DBFA601CC4B2C7
:10166000102CF8DB701CC1B23846FFF7D6FF0024FF
:1016700006E004F11001685C01F0CBFA601CC4B212
:10168000102CF6DBBDE8F08110B50020FFF7A8FFB5
:10169000214A00210120FFF7D2FF204A00210F201C
:1016A000FFF7CDFF1E4A02210120FFF7C8FF1B4AAA
:1016B00002210F20FFF7C3FF1A4A04210120FFF780
:1016C000BEFF194A04210F20FFF7B9FF174A062170
:1016D0000120FFF7B4FF164A06210F20FFF7AFFFE6
:1016E000144A0021222000F02DF8134A0221222062
:1016F00000F028F8114A0421242000F023F8104AB1
:101700000621232000F01EF84FF47A7001F044FF08
:101710000020FFF765FF10BD3000002050000020C2
:1017200070000020D0000020F0000020D001002038
:10173000F0010020AC0200202C0200202C0300202D
:101740004A0300202DE9F04106460F46904600244A
:1017500045462AE039463046FFF75FFF002409E09E
:101760002978203904EB0111124A505C01F051FA3A
:10177000601CC4B2082CF3DB781CC1B23046FFF702
:101780004CFF00240BE029782039082202EB0111DC
:101790002144084A505C01F03CFA601CC4B2082C99
:1017A000F1DB6D1C06F10800C6B228780028D1D103
:1017B000BDE8F0813C3A000810B50D480068A8B1BA
:1017C000002406E02046FFF73DFA0A2001F0E4FE7F
:1017D000641C632CF6DB632406E02046FFF732FA34
:1017E0000A2001F0D9FE641E002CF6DA10BD0000BC
:1017F0002C00002029B1064A12680243044B1A60EB
:1018000004E0034A12688243014B1A6070470000EB
:101810003038024029B1064A12680243044B1A606C
:1018200004E0034A12688243014B1A6070470000CB
:101830004038024029B1064A12680243044B1A603C
:1018400004E0034A12688243014B1A6070470000AB
:1018500044380240F0B50021002200240225002671
:101860000223324F3F6807F00C0121B1042905D053
:10187000082937D105E02E4F076036E02D4F07606D
:1018800033E02A4F3F1F3F68C7F38056274F3F1F63
:101890003F6807F03F036EB1264FB7FBF3F7DFF861
:1018A0008CC0ACF1040CDCF800C0CCF3881C07FB46
:1018B0000CF40CE01E4FB7FBF3F7DFF870C0ACF18F
:1018C000040CDCF800C0CCF3881C07FB0CF4174FA9
:1018D0003F1F3F68C7F301477F1C7D00B4FBF5F74E
:1018E000076002E0124F076000BF00BF0F4F3F6864
:1018F00007F0F0010909104F7A5C0768D74047608C
:101900000A4F3F6807F4E051890A0B4F7A5C476839
:10191000D7408760054F3F6807F46041490B064F89
:101920007A5C4768D740C760F0BD000008380240C5
:101930000024F40000127A001402002010B50446BE
:1019400000BF02210A4800F075F80028F9D02146AE
:10195000074800F07BF800BF0121054800F06AF855
:101960000028F9D0024800F06EF8C0B210BD0000A7
:101970000030014021B1028842F04002028004E0C0
:1019800002884FF6BF731A400280704700B587B0D7
:1019900001210220FFF72EFF01210803FFF74AFF74
:1019A0003820059002208DF8180000208DF81A00CC
:1019B00002208DF8190001208DF81B0005A91B4895
:1019C000FFF71EFA052203211848FFF761FA0522E6
:1019D00004211648FFF75CFA052211461348FFF769
:1019E00057FA0020ADF800004FF48270ADF8020005
:1019F0000020ADF80400ADF80600ADF80800ADF821
:101A00000E004FF40070ADF80A000020ADF80C0095
:101A10000720ADF810006946054800F019F80121CB
:101A20000348FFF7A7FF07B000BD00000004024015
:101A3000003001400246002013890B400BB1012009
:101A400000E0002070470146888970478181704717
:101A500010B50022028802F441520B884C882343BF
:101A60008C882343CC8823430C8923434C8923430C
:101A70008C892343CC8923431A430280838B4FF202
:101A8000FF74234083830B8A038210BD30B500228C
:101A90008B071C0F0F2303FA04F20B4B8C1053F827
:101AA00024309343084C8D1044F8253023468C1085
:101AB00053F824308C07240F00FA04F42343024C1B
:101AC0008D1044F8253030BD083801400CB5002099
:101AD000019000903448006840F48030324908603A
:101AE00000BF3148006800F4003000900198401CAD
:101AF0000190009818B90198B0F5A04FF1D12A488B
:101B0000006800F4003010B10120009001E00020D6
:101B100000900098012846D123484030006840F0EA
:101B200080502149403108602048006840F440401E
:101B30001E4908601C48083000681B4908310860CD
:101B40000846006840F4004008600846006840F419
:101B5000A05008601648091F0860081F006840F080
:101B60008070091F086000BF0F48006800F0007017
:101B70000028F9D040F205700E4908600A48083084
:101B8000006820F003000849083108600846006832
:101B900040F00200086000BF03480830006800F011
:101BA0000C000828F8D10CBD00380240007000403D
:101BB00008544007003C0240042808D14FF0E021BF
:101BC000096941F004014FF0E022116107E04FF094
:101BD000E021096921F004014FF0E0221161704712
:101BE00010B51548006840F47000134908601348A8
:101BF000006840F001001149086000200F490831D9
:101C000008600E4800680E4908400C4908600D48FD
:101C1000091D0860081F006820F48020091F086063
:101C2000002006490C310860FFF750FF4FF00060BC
:101C300001498039086010BD88ED00E0003802409D
:101C4000FFFFF6FE1030002410B50121014800F01E
:101C50000FF810BD0008004021B1028842F0800258
:101C6000028004E002884FF67F731A4002807047BA
:101C7000CA430282704721B1028842F00102028009
:101C800004E002884FF6FE731A400280704731B1BB
:101C9000B0F8442042F40042A0F8442005E0B0F837
:101CA0004420C2F30E02A0F84420704770B500240F
:101CB00000220023058C4FF6FE7635400584028C09
:101CC0008388048B4FF68F752C40B51E2C400D88F1
:101CD0002C43751E2A408D892A434D882A43104D76
:101CE000A84202D00F4DA84213D14FF6F7752A40F3
:101CF000CD892A434FF6FB752A408D882A434FF63B
:101D0000FF652B404FF6FF552B400D8A2B434D8A24
:101D10002B43838004838D684563028470BD00007B
:101D200000000140000401400A460021018B4FF6EB
:101D3000F7731940114301837047000070B5002408
:101D400000220023058C4FF6EF7635400584028C87
:101D50008388048B48F6FF752C404FF6FF452C40D6
:101D60000D884FF6FF7606EA05252C434FF6DF7502
:101D70002A408D8906EA05152A434D8806EA05158D
:101D80002A43154DA84202D0144DA8421DD14FF64A
:101D90007F752A40CD894FF6FF7606EA05152A435E
:101DA0004FF6BF752A408D8806EA05152A434FF67F
:101DB000FF352B404FF2FF752B400D8A06EA850553
:101DC0002B434D8A06EA85052B43838004838D6867
:101DD0008563028470BD00000000014000040140E2
:101DE0000A460021018B4FF2FF7319404FF6FF7333
:101DF00003EA0223194301837047000070B50024F1
:101E000000220023058C4FF6FF6635400584028CC6
:101E10008388848B4FF68F752C404FF6FC752C40D1
:101E20000D882C434FF6FF552A408D894FF6FF76DB
:101E300006EA05252A434D8806EA05252A43154D5D
:101E4000A84202D0144DA8421DD14FF2FF752A407E
:101E5000CD894FF6FF7606EA05252A434FF6FF3572
:101E60002A408D8806EA05252A434EF6FF752B4049
:101E70004DF6FF752B400D8A06EA05152B434D8A5A
:101E800006EA05152B43838084838D68C56302842D
:101E900070BD000000000140000401400A4600211E
:101EA000818B4FF6F773194011438183704741636B
:101EB000704781637047C163704700000022028849
:101EC000184B98420ED0184B98420BD0B0F1804F6F
:101ED00008D0164B984205D0154B984202D0154BAE
:101EE000984204D14FF68F731A404B881A43124B15
:101EF000984207D0114B984204D04FF6FF431A4046
:101F00000B891A4302804B68C3620B880385054B1B
:101F1000984202D0044B984201D18B7A0386012368
:101F2000838270470000014000040140000400402B
:101F300000080040000C0040001000400014004069
:101F400010B52DED048B86B0484B5A1E4849481EEB
:101F500001F0FAFB0020FEF7E9FF464908800A205D
:101F6000FEF7CCFF00EE100AB8EE400A424880EDC2
:101F7000000A90ED000ADFED410A80EE201A11EE12
:101F8000104A2046FEF7B8F941EC190B9FED3C0BC7
:101F900053EC102BFEF73EF941EC180BFEF7BFF99E
:101FA000354908603148401E4378027836A13848E8
:101FB00000F058FE2E48401E4378027832A1354882
:101FC00000F050FE2B48028833A1344800F04AFE4E
:101FD00029480068FEF790F941EC180B53EC182BD8
:101FE0002FA1314800F03EFE23480068FEF784F937
:101FF00041EC180B8DED048B1E4802881C48401ED6
:1020000040781B49491E0978CDE901020091174823
:10201000401E4378027825A1294800F023FE642061
:1020200001F0BAFA1148401E00781E2814DB032480
:102030004FF41670FEF7D8FE2248006858B9FEF734
:10204000CDFD01E0FEF7B2FD2000A4F10104F9D1BD
:1020500001201C49086005E00020FEF7C5FE0020B5
:102060001849086006B0BDEC048B10BD01000020CB
:10207000030000200400002008000020000080452C
:102080006666666666660A403A25642E2564000028
:10209000AC0200202C0200203A2564002C03002012
:1020A0003A252E33660000004A03002025642E25C1
:1020B000642D25642E25642D25642D252E33660080
:1020C000680300201000002000B58BB001214020E3
:1020D000FFF7A0FB01210220FFF78CFB09220F2153
:1020E0002048FEF7D5FE4FF40040099002208DF8FD
:1020F000280000208DF829008DF82A0001208DF895
:102100002B0009A91748FEF77BFE5320ADF81800F5
:1021100040F2E73007900020ADF81A00ADF820003B
:1021200006A91148FFF7CAFE6020ADF804000020A0
:10213000ADF810000120ADF806000020039001A9C1
:102140000948FFF7FBFD08210748FFF749FE012179
:102150000548FFF781FD01210348FFF78CFD0BB017
:1021600000BD0000000402400018004000B58BB024
:1021700001210846FFF74EFB01210220FFF73AFB41
:1021800001220A212148FEF783FE4FF48060099066
:1021900002208DF8280000208DF829008DF82A00F3
:1021A00001208DF82B0009A91848FEF729FE40F2FE
:1021B0008F10ADF81800632007900020ADF81A00CA
:1021C000ADF8200006A94FF08040FFF777FE6020B1
:1021D000ADF804000020ADF810000120ADF80600B5
:1021E0000020039001A94FF08040FFF707FE08216F
:1021F000C806FFF753FE01218807FFF72DFD0121D7
:102200008807FFF738FD0BB000BD00000004024056
:1022100070B5A0B0002440F22551574800F0F4FA00
:1022200000287DD0544800F0B5FBC5B20A2D0CD271
:10223000DFE805F099050C13171E272E53904FA0C9
:1022400000F000FD0120514908608CE050A000F032
:10225000F9FC00204D49086085E0012050490860E4
:1022600081E050A000F0EEFC00204D4908607AE0CB
:10227000FFF77CFF01204E4908604EA000F0E2FC11
:1022800071E000204A4908604EA000F0DBFC6AE0E3
:10229000FFF756FE00BFFEF722FC0028FBD100240A
:1022A00009E000BF4C4A115D621CD0B2FEF757FC3A
:1022B0000028F7D1641C4848FDF782FFA042F0D8FF
:1022C0004548FDF77DFF86B232460021424800F0C6
:1022D0005FFC42A000F0B6FC45E0002406E0611C73
:1022E000C8B2FEF70DFC0DF80400641C3A48FDF777
:1022F00067FFA042F3D83CA000F0A4FC002405E056
:102300001DF804103CA000F09DFC641C3248FDF751
:1023100057FFA042F4D825A000F094FC2E4800E01E
:1023200022E0FDF74DFFC6B232466946002000F0BC
:10233000F5FB32A000F086FC002405E01DF8041037
:102340002DA000F07FFC641C2348FDF739FFA0425C
:10235000F4D808E02DA000F075FC00F0C9FB2DA01A
:1023600000F070FC00BF00BF40F22551024800F0B1
:10237000F1F920B070BD000000100140B4F2BFAA16
:10238000BAF4CEFCB5C60D0A0000000028000020FB
:10239000B9D8B1D5BAF4CEFCB5C60D0A000000001C
:1023A00018000020B9D8B1D5B2C9BCAF0D0A0000E1
:1023B0002C000020B7E4C3F9C6F7BEAFB1A80D0AE0
:1023C00000000000B9D8B1D5B7E4C3F9C6F7BEAF75
:1023D000B1A80D0A0000000068030020B2C9BCAF1C
:1023E000B3C9B9A60D0A0000415432344F4330320C
:1023F0002D444154410D0A002563000057323551E8
:1024000036342D444154410D0A000000B2C1B3FDE1
:10241000D6D00A00B2C1B3FDB3C9B9A60A00000004
:1024200070B5A0B0002440F22551994800F0F9F9A8
:1024300000287CD0964800F0ADFAC5B20A2D11D222
:10244000DFE805F010051122262E3C4879FE002019
:10245000FFF7C6F88FA202210520FFF773F90120CC
:10246000904908600CE10020FFF7BAF88EA2022123
:102470001020FFF767F94FF4E0618E48FEF736FD54
:10248000002088490860FBE001208B490860F7E0E4
:1024900000208949086089A20221FFF753F9EFE083
:1024A000FFF764FE0020FFF79BF889A202210020BD
:1024B000FFF748F901208A490860E1E00020FFF7B2
:1024C0008FF888A202210020FFF73CF90020844900
:1024D0000860D5E0FFF734FD0020FFF781F886A201
:1024E00002210620FFF72EF900BFFEF7F8FA0028B8
:1024F000FBD1002409E000BF834A115D621CD0B209
:10250000FEF72DFB0028F7D1641C7F48FDF758FE2D
:10251000A042F0D87C48FDF753FE86B23246002137
:10252000794800F035FB79A20221062000E0A8E0FE
:10253000FFF708F9A4E0002406E0611CC8B2FEF72A
:10254000DFFA0DF80400641C6F48FDF739FEA04265
:10255000F3D80020FFF744F8704A00210120FFF76C
:102560006EF86F4A00210F20FFF769F86D4A0221CB
:102570000120FFF764F86A4A02210F20FFF75FF895
:10258000694A04210120FFF75AF8684A04210F2004
:10259000FFF755F8664A06210120FFF750F8654A13
:1025A00006210F20FFF74BF863A16846FDF710FEE8
:1025B0000646324600212220FFF7C4F85EA1002023
:1025C000FDF706FE0646324602212220FFF7BAF842
:1025D00059A10020FDF7FCFD0646324604212220C9
:1025E000FFF7B0F854A10020FDF7F2FD0646324691
:1025F00006212220FFF7A6F84348FDF7E1FDC6B209
:1026000032466946002000F089FA4BA16846FDF782
:10261000DFFD0646324600214A20FFF793F846A127
:102620000020FDF7D5FD0646324602214A20FFF77D
:1026300089F841A10020FDF7CBFD0646324600E0B7
:102640000EE004214A20FFF77DF83BA10020FDF7B2
:10265000BFFD0646324606214A20FFF773F80FE019
:102660000020FEF7BDFF35A202210620FFF76AF821
:1026700000F03EFA34A202210620FFF763F800BF03
:1026800000BF40F22551024800F064F820B070BD50
:10269000004400404F50454E204252454154485F4F
:1026A0004C45440028000020434C4F5345204C45E6
:1026B000445300000010024014000020434C4F53CC
:1026C0004520436F6C6C656374696F6E0000000099
:1026D0004F50454E20424545505F414C41524D00C0
:1026E0002C000020434C4F534520424545505F414C
:1026F0004C41524D000000004461746120436F6CF6
:102700006C656374696F6E0068030020436F6C6CC6
:10271000656374696F6E204F4B000000300000202D
:102720005000002070000020D0000020F0000020A9
:10273000D0010020F00100202D000000455241533F
:1027400045494E47000000004552415345204F4B3C
:102750000000000010B50022002340F66A14A142D8
:1027600000D100BF0A1201249440A3B2DC430480CC
:1027700010BD000010B50D480068A8B1FFF7E0FBE0
:102780000B490CA000F05EFA0D490EA000F05AFAB9
:102790000F4910A000F056FA114912A000F052FAA9
:1027A0004FF4617000F0F8FE10BD0000180000202A
:1027B000AC020020CEC2B6C8A3BA25730D0A000031
:1027C0002C020020CAAAB6C8A3BA25730D0A0000BD
:1027D0002C030020B9E2D5D5A3BA25730D0A000059
:1027E0004A030020B5E7D1B9A3BA25730D0A00004A
:1027F00021B1828942F40052828104E082894DF63F
:10280000FF731A408281704702460020B1F5007FB5
:1028100000D100BF13880B400BB1012000E0002065
:10282000704770B50246002400230025002040F6C2
:102830006A16B14200D100BFC1F3421501F01F0377
:10284000012606FA03F3012D02D19689334006E0F2
:10285000022D02D1168A334001E0968A33400C12D1
:10286000012606FA04F41688344013B10CB1012095
:1028700000E0002070BDF0B50346002400260025CE
:10288000002040F66A17B94200D100BF1846C1F3D4
:10289000421401F01F06012707FA06F5012C01D1A9
:1028A0000C3004E0022C01D1103000E014301AB1D9
:1028B00007682F43076002E00768AF430760F0BD79
:1028C0002DE9FF4705460E460024A14600BFA0465D
:1028D000B08900B100BF2C8A24F44054F08804432E
:1028E0002C82AC8941F20C608443B0883189084362
:1028F000718908430443AC81AC8A24F44074B089E4
:102900000443AC826846FEF7A5FF2048854202D00A
:102910001F48854202D1DDF80C9001E0DDF80890F7
:10292000A88900F4004040B109EBC90000EB091090
:1029300031684900B0FBF1F707E009EBC90000EB93
:10294000091031688900B0FBF1F76420B7FBF0F0A3
:1029500004012009642101FB1078A88900F40040DB
:1029600040B1322000EBC800B0FBF1F000F00700EE
:10297000044308E0322000EB08106421B0FBF1F0C2
:1029800000F00F0004432C81BDE8FF8700100140D8
:102990000014014001468888C0F308007047000019
:1029A00000B587B001211020FEF744FF0121084641
:1029B000FEF720FF072209212248FEF769FA0722C5
:1029C0000A212048FEF764FA02208DF818004FF41F
:1029D000C060059001208DF81B0000208DF81900C3
:1029E00005A91848FEF70CFA4FF4E13001900020D9
:1029F000ADF810000C20ADF80E000020ADF80C0072
:102A0000ADF80A00ADF8080001A90F48FFF758FF1C
:102A100001210D48FFF7ECFE25208DF80000012074
:102A20008DF8030000208DF801008DF80200684643
:102A3000FEF790FD012240F225510348FFF71BFFEE
:102A400007B000BD000002400010014010B5002496
:102A500000BF04210948FEF747FA0520FEF76EFF84
:102A60000020FEF76BFF044604210448FEF73EFAFF
:102A700004F001000028ECD110BD00000004024069
:102A80001FB5FEF783FF01211020FEF7B3FE0220E1
:102A9000029001208DF80C0000208DF80E0002201D
:102AA0008DF80D0001208DF80F0002A90E48FEF7E9
:102AB000A7F902210C48FEF719FA04200090012022
:102AC0008DF8040000208DF8060002208DF8050026
:102AD00001208DF8070069460448FEF791F90421AA
:102AE0000248FEF703FA1FBD001002400004024036
:102AF00010B500F03DF8FFF7A9FF04210648FEF7E6
:102B0000F3F96020FEF71AFF04210348FEF7EEF9FF
:102B1000FFF79CFF10BD0000000402402DE9F041CA
:102B200004460E46174604211048FEF7DDF903203F
:102B3000FEF704FFC4F30740FEF700FFC4F30720CD
:102B4000FEF7FCFEE0B2FEF7F9FE002500BF04E050
:102B50000020FEF7F3FE70556D1CBD42F8DB04212A
:102B60000248FEF7C3F9E8B2BDE8F0810004024074
:102B700010B504210548FEF7B7F90620FEF7DEFE82
:102B800004210248FEF7B2F910BD00000004024023
:102B90002DE9F04105460E461746FFF7E9FF0421EF
:102BA0000F48FEF7A1F90220FEF7C8FE0020FEF74D
:102BB000C5FE0020FEF7C2FEF0B2FEF7BFFE002405
:102BC00000BF03E0285DFEF7B9FE641CBC42F9DBE0
:102BD00004210348FEF78AF9FFF738FFBDE8F081CA
:102BE0000004024070B504460025FEF7C7FA7820BD
:102BF000FEF790FAFEF722FA2846FEF78BFAFEF768
:102C00001DFA2046FEF786FAFEF718FAFEF7BEF91F
:102C100070BD70B50546002444F04004FEF7AEFADE
:102C20007820FEF777FAFEF709FA2046FEF772FAE7
:102C3000FEF704FA2846FEF76DFAFEF7FFF9FEF7F5
:102C4000A5F970BD0FB4054B10B503A9044A02984D
:102C500000F0DEF810BC5DF814FB00000538000839
:102C6000280200200FB4084B10B504A902AA03984B
:102C700000F0CEF8044602A9002000F060FC2046D7
:102C800010BC5DF814FB00003F35000802E008C8E6
:102C9000121F08C1002AFAD170477047002001E0D6
:102CA00001C1121F002AFBD1704700002DE9FF5F10
:102CB000DDE90220010DDDF838B0024318D044F6FA
:102CC0001050A1F2FF3141430D140F98012820D07C
:102CD000A5EB0B00401C5FEA000A4FF00004474ED2
:102CE000DFF81C91A046504616D5CAF1000728E02F
:102CF0000F98012443A2012808D0002100980F9BBF
:102D0000C0E90021C0E90243BDE8FF9F6FEA0B0163
:102D1000F4E7CBF10000DEE7074612E0F80707D042
:102D20002246334640464946FDF774FA80468946B6
:102D30002246334610461946FDF76CFA04460E4605
:102D40007F10002FEAD1DDE90201BAF1000F4246FF
:102D50004B4602DAFDF75EFA01E0FDF77EFC044621
:102D60000E460022284BFDF7FFFC03D84FF0FF3042
:102D7000014607E00022254B20463146FDF7C6FB01
:102D8000FDF7DAFC102409E0002C0ADB0A220023FC
:102D9000FDF7F7FA019B30321A55641E50EA010222
:102DA000F2D1641C019AC4F1110314440F9A012A50
:102DB00003D0012208430DD10AE0084304D00020CB
:102DC0004FF0110B0F9080E7A3EB0B056D1E0DE08C
:102DD0005B4504DD4FF0000205F1010504E003DA74
:102DE0004FF00002A5F10105002AECD000980F99E0
:102DF000C0E90231C0E9004586E700000000244038
:102E00000000F03F300000000000F0430000E03F11
:102E10002DE9FF4F95B09B468946064600250FE2F7
:102E2000252877D100242746F84A0121059400E09F
:102E3000044316F8013F203B01FA03F01042F7D19A
:102E400030782A2811D06FF02F033078A0F13002AB
:102E5000092A16D8059A44F0020402EB820203EB19
:102E600042021044761C0590EFE759F8042B0592B6
:102E7000002A03DA504244F40054059044F002045E
:102E8000761C30782E2816D116F8010F44F0040471
:102E90002A280DD06FF02F023078A0F13003092BD3
:102EA00009D807EB870302EB4303C718761CF3E747
:102EB00059F8047B761C30786C280FD006DC4C283F
:102EC00017D068280DD06A2814D104E0742810D0D7
:102ED0007A280FD10DE044F400140AE044F4801481
:102EE00001E044F440147278824202D104F5801467
:102EF000761C761C307866280BD013DC582877D0E7
:102F000009DC002875D04528F6D04628F4D047289B
:102F10001AD19DE118E0632835D0642879D065285E
:102F200012D195E1702873D008DC6728F1D06928A8
:102F30006FD06E280DD06F2806D1B5E073282CD045
:102F4000752875D0782874D05A46179990476D1C0B
:102F500075E1C4F30250022809D003280DD0D9F836
:102F6000001004280DD00D6009F1040967E1D9F8BB
:102F70000010EA17C1E90052F6E7D9F800100D80F9
:102F8000F2E70D70F0E719F8041B8DF8001000202F
:102F90008DF80100EA46012003E059F804AB4FF038
:102FA000FF3061074FF0000102D40DE008F101018C
:102FB0008846B9420FDA8045F8DB1AF80810002974
:102FC000F4D108E008F1010188468142FADB1AF8E1
:102FD00008100029F6D105985B46A0EB08072146AA
:102FE0003846179A00F094FA284400EB080507E0E9
:102FF0004DE029E10DE01AF8010B5A461799904768
:10300000B8F10108F7D25B4621463846179A13E11A
:1030100042E00A220092C4F302524FF0000A022A50
:1030200008D059F804CB032A4FEAEC710AD00DE01E
:1030300029E02AE009F1070121F00702F2E802C1C4
:10304000914609E00FFA8CFC4FEAEC71042A03D197
:103050004FFA8CFC4FEAEC71002907DA0A4600218E
:10306000DCF1000C61EB02012D2202E0220504D507
:103070002B228DF80420012203E0E20701D0202258
:10308000F7E7904659E00A2102E010220DE01021F6
:103090004FF0000A00910BE010224FF0000A44F0BC
:1030A00004040827009203E008224FF0000A00926F
:1030B000C4F30252022A05D059F804CB0021032A96
:1030C00008D009E009F1070121F00702F2E802C186
:1030D000914605E01FFA8CFC042A01D10CF0FF0C8C
:1030E0004FF00008220728D5702806D0009B83F0F7
:1030F000100353EA0A0305D00EE040228DF80420A5
:10310000012208E05CEA010206D030228DF804209A
:103110008DF8050002229046009B83F0080353EAD5
:103120000A030AD15CEA010201D1620705D5302207
:103130008DF804204FF001087F1E582804D034A0D9
:1031400003900EA802900DE036A0F9E753466046C2
:10315000009AFDF716F984460398825C0298401E97
:10316000029002705CEA0100F0D1029806A9081AE8
:1031700000F1200A600702D524F4803400E0012722
:10318000574502DDA7EB0A0000E0002000EB0A0132
:10319000009005984144401A0590E00306D45B4630
:1031A0002146179A059800F0B3F90544002706E078
:1031B00001A85A46C05D179990476D1C7F1C474572
:1031C000F6DBE0030CD55B462146179A059800F024
:1031D0009FF9054404E030205A46179990476D1C2A
:1031E0000099481E00900029F5DC08E00298029939
:1031F0005A460078491C0291179990476D1CBAF104
:103200000001AAF1010AF1DC65E1000009280100D2
:10321000303132333435363738396162636465664C
:10322000000000003031323334353637383941420E
:10323000434445460000000000F058F90544761C60
:10324000307800287FF4ECAD19B02846BDE8F08F47
:10325000620700D4062709F1070222F0070CFCE8F8
:103260000223E14603F000485FEA080C02D00FF2A7
:10327000702C0DE05FEA045C02D50FF2682C07E0C9
:103280005FEAC47C02D00FF2602C01E0AFF2700C58
:103290004FF0FF3823F00043CDF850C065280CD024
:1032A00006DC452809D046281DD047283DD13DE001
:1032B000662818D067287ED138E00021112F01DB65
:1032C000112000E0781CCDE9000106A90EA8FFF747
:1032D000EDFCDDE90F010E9A03910021009207F148
:1032E000010A04914DE04FF000400097CDE9011034
:1032F00006A90EA8FFF7DAFCDDE90F0203920E9B88
:1033000011990022DDF80CA00093049211B9791CE8
:1033100000EB010AB7EB0A0004D4C0F1FF3007F15B
:10332000010A0490AAEB0700019044E0012F00DAA3
:1033300001270021112F01DD112000E03846CDE9E1
:10334000000106A90EA8FFF7B1FCDDE90F010E9AF6
:103350000391002104910092BA4621070CD40399ED
:10336000514500DA8A46BAF1010F05DD009AAAF14B
:103370000101515C302908D0B84202DA10F1040F83
:1033800006DA0121CDE9011015E0AAF10101E9E712
:10339000002805DC049901440491AAEB000102E035
:1033A000411C514500DD8A460499401A401C019099
:1033B0004FF000400290200704D40198504501DBF3
:1033C000CDF8048000208DF84F0002980DF14F07D2
:1033D000B0F1004F25D02B200E9002984FF002083C
:1033E00000280CDA404202902D200E9007E00A21BE
:1033F0000298FCF7B0FF3031029007F8011DB8F1D8
:103400000001A8F10108F2DC02980028EFD1791E32
:103410000E980870307800F0200040F0450007F862
:10342000020D12A8C01B00F107081498007800B123
:10343000012000EB0A01019801EBE071059841447D
:10344000401A401E0590E00306D45B462146179AB9
:10345000059800F05DF805441498007818B15A46B4
:10346000179990476D1CE00324D55B462146179AB7
:10347000059800F04DF805441CE00498002807DB8F
:10348000DDE90301884203DD0098405C179901E003
:10349000179930205A469047049805F10105401CC1
:1034A00004900198401E019004D12E205A4617998D
:1034B00090476D1CBAF10001AAF1010ADDDC05E0BC
:1034C00017F8010B5A46179990476D1CB8F1000187
:1034D000A8F10108F4DC5B462146179A0598ABE693
:1034E0002D0000002B000000200000002DE9F0411D
:1034F000044600251E461746880404D405E03946D4
:103500002020B0476D1C641EF9D52846BDE8F08127
:103510002DE9F041044600251E469046C80301D51A
:10352000302700E02027880404D505E041463846CE
:10353000B0476D1C641EF9D52846BDE8F0810A68C5
:10354000531C0B601070704742F21071484300BF6B
:103550000100A0F10100FBD17047000010B5044646
:103560006FF00400FEF728FBE11704EB5171C1F383
:10357000C701074A11701046007800EB4001C1EB0B
:10358000C0104FF6FF7101EAC0000249088010BD6B
:10359000100200201202002070B504464FF407709C
:1035A00094FBF0F0C6B24FF4077094FBF0F100FB0F
:1035B000114085B205E04FF4077000F02FF8701E3F
:1035C000C6B2002EF7D115B1284600F027F870BD1D
:1035D0000146114A12784A434FF0E0235A61002213
:1035E0009A611A46126942F001021A6100BF4FF057
:1035F000E022106900F001021AB100F48032002AC2
:10360000F5D04FF0E022126922F001024FF0E023E2
:103610001A6100229A617047100200200146114A87
:1036200012884A434FF0E0235A6100229A611A46F9
:10363000126942F001021A6100BF4FF0E0221069E6
:1036400000F001021AB100F48032002AF5D04FF0E8
:10365000E022126922F001024FF0E0231A610022F9
:103660009A617047120200201CB501210846FEF73E
:10367000C1F80820009001208DF804008DF80600A4
:1036800000208DF8070069460348FDF7B9FB0821C3
:103690000148FDF72BFC1CBD000002401CB50820B2
:1036A000009000208DF804008DF80700694602485C
:1036B000FDF7A6FB1CBD0000000002401CB5082061
:1036C000009001208DF804008DF8060000208DF890
:1036D000070069460348FDF793FB08210148FDF701
:1036E00005FC1CBD0000024070B50024002500BF91
:1036F00023E06006040E00BF08211248FDF7EBFB33
:103700000028F9D100BF08210E48FDF7E4FB00288E
:10371000F9D008210B48FDF7DEFB10B11E20FFF7A2
:1037200057FF08210748FDF7D6FB10B144F001040C
:1037300001E004F0FE04681CC5B2082DD9DB204668
:1037400070BD0000000002402DE9F04105460E4624
:1037500017469846FFF7B2FF08212848FDF7C4FB3B
:103760001420FFF719FF08212448FDF7BFFB1E2096
:10377000FFF72EFFFFF792FF00BF08211F48FDF75C
:10378000AAFB0028F9D100BF08211C48FDF7A3FBC4
:103790000028F9D000BF08211848FDF79CFB00283D
:1037A000F9D1002400BF04E0FFF79EFF144908553B
:1037B000641C052CF8DBFFF781FF114800781049E5
:1037C000497808440E49897808440D49C978084465
:1037D0000B49097988420FD10948007828700848B8
:1037E000407830700648807838700548C07888F88E
:1037F00000000020BDE8F0810120FBE7000002404E
:103800002000002000BF054A128802F04002002A72
:10381000F9D0C2B2014B9A807047000000100140FD
:1038200010B50448006818B1FEF78AFBFDF72CFFBD
:1038300010BD000014000020A820FFF78FFEFFF746
:10384000AFF84FF4A060FDF7C1FE00F0A3F8FDF75C
:1038500027FEFDF7F1FDFDF709FEFDF7A9FCFDF7D9
:10386000E1FCFDF719FDFDF751FDFEF72DFC00F021
:103870001DF8FFF705F9FDF771FBFFF7F5FEFDF702
:1038800081FDFDF759F8FDF71DF8FEF759FB00BF64
:10389000FDF725F90028FBD107E0FDF72BFEFFF728
:1038A000BFFFFDF789FFFEF765FFF6E700B58BB0B8
:1038B00001210846FDF7BEFF01211020FDF79AFF08
:1038C000012209213148FDF7E3FA012208212F489E
:1038D000FDF7DEFA01220A212C48FDF7D9FA4FF450
:1038E000E060099002208DF8280000208DF8290062
:1038F0008DF82A0001208DF82B0009A92348FDF737
:103900007FFA40F28F10ADF8180063200790002076
:10391000ADF81A00ADF8200006A91D48FEF7CEFA52
:103920006020ADF804000120ADF806000420ADF8D9
:1039300008000020ADF810000820ADF812000020AB
:10394000ADF814004FF40070ADF816006E2003902F
:1039500001A90F48FEF7AAF901A90D48FEF7EEF9F3
:1039600008210B48FEF7E0F908210948FEF738FA6C
:1039700001210748FEF77FF901210548FEF76CF9A0
:1039800001210348FEF783F90BB000BD001002408F
:103990000000014000B587B001214804FDF73AFF5F
:1039A00001210820FDF726FF072205212148FDF708
:1039B0006FFA072206211F48FDF76AFA602005907A
:1039C00002208DF8180000208DF8190001208DF8D4
:1039D0001B0005A91748FDF713FA4FF4E1300190D9
:1039E0000020ADF810000C20ADF80E000020ADF85E
:1039F0000C00ADF80A00ADF8080001A90E48FEF76A
:103A00005FFF01210C48FEF7F3FE012240F2255131
:103A10000948FEF730FF26208DF8000001208DF8C0
:103A200003008DF801008DF802006846FDF792FD55
:103A300007B000BD000C0240004400400000000040
:103A4000000000000000000000000000000000F87E
:103A500000000000000000333000000000100C06E1
:103A6000100C0600000000000000000040C078407C
:103A7000C0784000043F04043F040400007088FC48
:103A800008300000001820FF211E0000F008F000A0
:103A9000E018000000211C031E211E0000F0088811
:103AA000700000001E2123241927211010160E007B
:103AB000000000000000000000000000000000E026
:103AC000180402000000000718204000000204183B
:103AD000E00000000040201807000000404080F097
:103AE000804040000202010F01020200000000F0CD
:103AF000000000000101011F0101010000000000A1
:103B00000000000080B07000000000000000000015
:103B1000000000000001010101010101000000009E
:103B20000000000000303000000000000000000035
:103B300080601804006018060100000000E0100812
:103B40000810E000000F102020100F00001010F8E7
:103B5000000000000020203F202000000070080826
:103B600008887000003028242221300000300888A6
:103B7000884830000018202020110E000000C020CE
:103B800010F8000000070424243F240000F80888EF
:103B9000880808000019212020110E0000E010887C
:103BA00088180000000F112020110E0000380808AE
:103BB000C83808000000003F0000000000708808BE
:103BC00008887000001C222121221C0000E010083F
:103BD0000810E0000000312222110F00000000C098
:103BE000C000000000000030300000000000008035
:103BF0000000000000008060000000000000804025
:103C0000201008000001020408102000404040403D
:103C10004040400004040404040404000008102090
:103C200040800000002010080402010000704808D5
:103C30000808F0000000003036010000C030C8283D
:103C4000E810E0000718272423140B000000C038F8
:103C5000E0000000203C23020227382008F8888872
:103C600088700000203F202020110E00C03008087E
:103C700008083800071820202010080008F8080855
:103C80000810E000203F202020100F0008F888884E
:103C9000E8081000203F20202320180008F888881A
:103CA000E8081000203F200003000000C030080892
:103CB0000838000007182020221E020008F808001B
:103CC0000008F808203F210101213F20000808F8E2
:103CD000080800000020203F202000000000080805
:103CE000F8080800C08080807F00000008F888C0C5
:103CF00028180800203F20012638200008F8080076
:103D000000000000203F20202020300008F8F800AC
:103D1000F8F80800203F003F003F200008F830C0BE
:103D20000008F808203F200007183F00E0100808AE
:103D30000810E0000F10202020100F0008F80808DD
:103D40000808F000203F210101010000E0100808F0
:103D50000810E0000F18242438504F0008F8888815
:103D600088887000203F2000030C302000708808F5
:103D7000080838000038202121221C00180808F803
:103D8000080818000000203F2000000008F8080084
:103D90000008F808001F202020201F000878880055
:103DA00000C83808000007380E010000F80800F8C5
:103DB0000008F800033C0700073C0300081868806F
:103DC0008068180820302C03032C30200838C800E5
:103DD000C83808000000203F200000001008080834
:103DE000C83808002038262120201800000000FED6
:103DF000020202000000007F40404000000C30C082
:103E000000000000000000010638C00000020202AD
:103E1000FE000000004040407F000000000004025F
:103E2000020204000000000000000000000000008A
:103E3000000000008080808080808080000202047A
:103E40000000000000000000000000000000808072
:103E5000808000000019242222223F2008F80080E0
:103E600080000000003F112020110E0000000080A3
:103E700080800000000E1120202011000000008032
:103E80008088F800000E112020103F200000808064
:103E900080800000001F222222221300008080F078
:103EA000888888180020203F2020000000008080A3
:103EB00080808000006B94949493600008F80080E8
:103EC00080800000203F210000203F200080989843
:103ED000000000000020203F2020000000000080A3
:103EE0009898000000C08080807F000008F80000E3
:103EF00080808000203F24022D302000000808F838
:103F0000000000000020203F2020000080808080F2
:103F100080808000203F20003F20003F8080008084
:103F200080800000203F210000203F200000808092
:103F300080800000001F202020201F008080008043
:103F40008000000080FFA12020110E0000000080F2
:103F500080808000000E112020A0FF8080808000E3
:103F60008080800020203F21200001000000808010
:103F7000808080000033242424241900008080E005
:103F8000808000000000001F2020000080800000D2
:103F900000808000001F202020103F2080808000B3
:103FA0000080808000010E300806010080800080C3
:103FB000008080800F300C030C300F0000808000E8
:103FC000808080000020312E0E3120008080800013
:103FD0000080808080818E701806010000808080C3
:103FE000808080000021302C222130000000000061
:103FF000807C020200000000003F40400000000002
:10400000FF00000000000000FF0000000002027C32
:10401000800000000040403F000000000006010159
:104020000202040400000000000000004C400008F0
:10403000000000202C0200001E080008E4410008D7
:104040002C0200203C0600009C2C0008022D0001E0
:1040500020091060028C0000FE920112FE10100A6E
:1040600004047E01407E42427E021004427E4022D1
:104070002009FC242424FC252624084012040040A6
:10408000308F80844C55252525554C8080804041BB
:104090003F7140100B4448507F40407F504844409F
:1040A00020093E22E2223E00FE2201200DE2020013
:1040B000203F201F1111007F440113474070100B57
:1040C00004F484D4A5A6A4D484F40C118B10250286
:1040D00002123A1613121A3242827E000040404207
:1040E0004458C0407F40C050484640400080804017
:1040F00020180797133F40011278BB4019424242F3
:10410000FE0042A29E82A2C2BE0000806F08082864
:10411000CF00002FC808100A20C20C8002F2121231
:10412000FE02300412F202E0100D00FF4A49484836
:10413000484949FF00005D441CFF504C0044545462
:104140007F5454544400080601FF01060000FF1587
:104150001555957F201007201808C838CF5046986D
:1041600020040B21040201FF4021060A1120201027
:10417000041014D4591009FC525252D3121010D00A
:10418000100750575555557F04135750D0400620FF
:104190002020BEAA0112BE0C11C11380AF0C12FF69
:1041A0001012AF3F116013F8880122FF0536F8B2F4
:1041B000131F0801227F1014069F80F000002F14A7
:1041C000046202023640084232020200000101523B
:1041D000FF0875E8200501020304046805060708C6
:0441E00009240000AE
:040000050800018965
:00000001FF
